:020000040800F2
:10000000D8100020D1010008631900086F170008FC
:1000100061190008AD030008371C0008000000004B
:100020000000000000000000000000006719000848
:10003000AF030008000000006519000869190008F6
:10004000EB010008EB010008EB010008EB010008E0
:10005000EB010008EB010008EB010008EB010008D0
:10006000EB010008EB010008EB010008EB010008C0
:10007000EB010008EB010008EB010008EB010008B0
:10008000EB010008EB010008EB010008EB010008A0
:10009000EB010008EB010008EB010008EB01000890
:1000A000EB010008E9190008EB010008EB0100086A
:1000B000F5190008EB010008EB010008EB0100084E
:1000C000EB010008EB010008EB010008EB01000860
:1000D000EB010008EB010008EB010008EB01000850
:1000E000EB010008EB010008EB01000800F002F84A
:1000F00000F05EF80AA090E8000C82448344AAF164
:100100000107DA4501D100F053F8AFF2090EBAE861
:100110000F0013F0010F18BFFB1A43F0010318473B
:10012000C0240000E024000010F8013B0A4413F052
:10013000030408BF10F8014B1D1108BF10F8015B44
:10014000641E05D010F8016B641E01F8016BF9D133
:10015000002D15D010F8014B03F00C030C2BA1EB74
:1001600004040ABF10F8013BA4EB8314A4EB03249E
:1001700005F1010314F8016B5B1E01F8016BF9D561
:10018000914238BF10F8013BD1D3704700230024BF
:1001900000250026103A28BF78C1FBD8520728BF97
:1001A00030C148BF0B6070471FB51FBD10B510BDF3
:1001B00000F058F81146FFF7F7FF01F04DFD00F091
:1001C00076F803B4FFF7F2FF03BC00F07DF80000FF
:1001D0000948804709480047FEE7FEE7FEE7FEE7DB
:1001E000FEE7FEE7FEE7FEE7FEE7FEE70448054917
:1001F000054A064B70470000E5190008ED000008AD
:10020000D80A0020D8100020D80C0020D80C0020DC
:100210004FF0000200B5134694469646203922BF9F
:10022000A0E80C50A0E80C50B1F12001BFF4F7AFEA
:10023000090728BFA0E80C5048BF0CC05DF804EBCC
:10024000890028BF40F8042B08BF704748BF20F83A
:10025000022B11F0804F18BF00F8012B7047704738
:1002600070477047754600F02BF8AE4605006946AA
:10027000534620F00700854618B020B5FFF7B6FFBB
:10028000BDE820404FF000064FF000074FF0000897
:100290004FF0000B21F00701AC46ACE8C009ACE818
:1002A000C009ACE8C009ACE8C0098D46704710B57C
:1002B0000446AFF300802046BDE81040FFF781BF41
:1002C00000487047740A002001491820ABBEFEE7C1
:1002D000260002007047000070B50446006881687F
:1002E000C943C90717D1816821F00101816000F07D
:1002F0000BFB05460AE000BF00F006FB401B02288E
:1003000004D920688068C043C00706D02068806890
:10031000C043C007F0D0002070BDA06A40F01000BC
:10032000A062E06A40F00100E062012070BD0000C0
:10033000F8B500260446009600688168C943C907DD
:100340002DD0816841F0010181601648164900688E
:10035000B0FBF1F000E0401E00900028FBD100F05F
:10036000D3FA054616E000BF00F0CEFA401B022883
:1003700010D920688068C043C0070BD0A06A40F045
:100380001000A062E06A40F00100E06284F824609E
:100390000120F8BD20688068C043C007E4D1002078
:1003A000F8BD0000B009002040420F00FEE7704792
:1003B000F8B50024009490F824202546012A12D094
:1003C000012280F824204A681F23072A0DD20668DC
:1003D000776B521E02EB820293409F430B6893405F
:1003E0001F43776319E00220F8BD06680D2A0AD280
:1003F000376BD21F02EB820293409F430B689340FE
:100400001F43376309E0F76A0D3A02EB820293401B
:100410009F430B6893401F43F7620A6807230668EF
:100420000A2A0AD3F7680A3A02EB420293409F4332
:100430008B6893401F43F76008E0376902EB420284
:1004400093409F438B6893401F4337610A68102A8B
:1004500001D0112A20D1124B02689A4217D1936819
:100460001B0219D4936843F40003936009681029B0
:1004700012D10C490C4A0968B1FBF2F101EB810180
:10048000490000E0491E00910029FBD104E0816A87
:1004900041F020018162012480F824502046F8BDFB
:1004A00000240140B009002040420F000068C06CE9
:1004B000704700002DE9F0414FF0000704003D4671
:1004C0007ED0A06A002628B9E66284F8246020461F
:1004D00000F07EF82046FFF7FFFEA16AC90600D4AF
:1004E00020B1A06A40F01000A06269E0A16A21F486
:1004F000885141F00201A1626268E169237B0A43ED
:1005000047EA43010A43A1684FF48077B94209D012
:10051000012907D05FF0000194F814C0BCF1010F6D
:1005200002D00AE03946F7E7F3B1A36A43F02003AB
:10053000A362E36A43F00103E3622368D3F804C0D3
:100540002CF4694C4CEA010CC3F804C021688B6898
:10055000DFF870C003EA0C0313438B60A168B94253
:100560000BD0012909D00CE0DFF85CC0A3690CEBCB
:1005700043330B4343F40061DFE7218A0D05A5F502
:1005800080152168CB6A23F470032B43CB6221686A
:1005900089680E4B1940914208D1E662A16A21F0A8
:1005A000020141F00101A162BDE8F081A06A20F0E2
:1005B000020040F01000A062E06A40F00100E0623A
:1005C0000120F1E7FDF7E1FF00E0FFFFFE0E1FFF56
:1005D00000B585B00021009101910291039100685E
:1005E0000E49884218D10E48816941F40071816139
:1005F000816901F400710491816941F00401816114
:100600008069694600F004000490202000900320D7
:100610000190044800F082F805B000BD00240140BC
:10062000001002400008014070B5044690F8240014
:1006300001280DD0012084F824002046FFF778FE21
:1006400002004FF0000005D084F82400104670BD71
:10065000022070BDA16A40F20123994341F48071E8
:10066000A1621F4D23681F49AB4218D10E6816F4D2
:10067000702F14D0A66A46F48016A6620E6876051E
:1006800005D5A66A26F4005646F48056A662A66AE8
:10069000F6040AD5E66A26F00606E66206E0A66AD1
:1006A00026F48016A6625E68E9E7E06284F824001A
:1006B0006FF00200186020688368C3F34243072B81
:1006C00005D1A84208D1096811F4702F04D08168BF
:1006D00041F480118160B9E7816841F4A001F9E734
:1006E000002801400424014010B5044690F824007D
:1006F000012807D0012084F824002046FFF7ECFDF4
:1007000010B107E0022010BDA16A21F4885141F028
:100710000101A162002184F8241010BD2DE9F84FD9
:10072000DFF8B8910024A9F1040B23460F2709F143
:10073000040AABF1040EC9E00125A5402A40AA42F3
:100740007DD1674ED1F804C0ACEB0608B44532D079
:1007500014DCBCF1030F3AD009DCBCF1000F2AD045
:10076000BCF1010F1CD0BCF1020F31D11DE0BCF176
:10077000110F17D0BCF1120F2AD119E0B8F5881F5C
:1007800019D006DCB8F5803F15D0B8F5801F1FD111
:1007900011E0B8F5001F0ED0B8F5041F18D10AE01B
:1007A000CB6815E0CB681B1D12E0CB6808330FE067
:1007B000CB680C330CE08B682BB1012B4FF0080396
:1007C00003D0456104E0042302E0056100E000235A
:1007D000FF2A01D8064601E000F104064FEA84052D
:1007E00001D9A5F12005D6F8008007FA05FC28EA12
:1007F0000C0803FA05F548EA0508C6F800804D68BC
:10080000ED0062D5374DAE6946F00106AE61AD69C7
:1008100024F0030605F001050095334D06EB050CA9
:10082000DCF80850A607360F07FA06F825EA08058F
:10083000DFF8B880404503D14FF0000817E044E0EE
:10084000DFF8AC80404502D14FF001080FE0DFF83F
:10085000A480404502D14FF0020808E0DFF89880FC
:10086000404502D14FF0030801E04FF0040808FAB8
:1008700006F848EA0508CCF808804D68D9F8006009
:10088000ED024D4601D5164300E096432E604D68BB
:10089000DAF80060AD02554601D5164300E09643F4
:1008A0002E604D68DBF80060AD035D4601D5164350
:1008B00000E096432E604D68DEF80060ED0375465B
:1008C00001D5164300E096432E60641C0D682A464D
:1008D000E5407FF431AFBDE8F88F00000804014027
:1008E000000011100010024000000140000801400B
:1008F000000C014000100140001401400AB10161E8
:1009000070470904FBE70000014880687047000059
:10091000A409002002488168027811448160704770
:10092000A4090020074810B5016841F010010160DA
:10093000032000F075F80F2000F006F800F024F80E
:10094000002010BD0020024070B50D4D04464FF44C
:100950007A712878B1FBF0F00A490968B1FBF0F030
:1009600000F032FB48B9102C07D200222146501E5D
:1009700000F036F800206C6070BD012070BD0000F2
:10098000A4090020B00900200C4808B5816941F095
:1009900001018161816901F001010091C16941F0AA
:1009A0008051C161C06900F08050009004484168E6
:1009B00021F0E06141F00071416008BD001002408B
:1009C00000000140002809DB00F01F0201219140D6
:1009D0004009800000F1E020C0F8001170470000DD
:1009E000F0B40E4B1B680C46C3F30223C3F107059A
:1009F000042D00D90425191D072901D2002300E088
:100A0000DB1E012606FA05F1491E214099409E4051
:100A1000761E16403143F0BC01F00EB90CED00E03B
:100A2000064900F0070208684FF6FF03184040EA45
:100A30000220034A10430860704700000CED00E0FC
:100A40000000FA052DE9F84305460078354CC0074B
:100A500054D0E0690026C00008D4E06940F080501E
:100A6000E061E069012600F0805000902E480168A6
:100A7000C90512D40168804641F480710160FFF716
:100A800043FF074605E000BFFFF73EFFC01B642899
:100A900023D8D8F80000C005F6D5206A10F44070BD
:100AA00021D0A98801F4407181421CD0206A1F49DD
:100AB000012220F440700A6000220A602062C00710
:100AC00011D0FFF721FF074641F2883808E000BF48
:100AD000FFF71AFFC11B414502D90320BDE8F88387
:100AE000206A8007F4D5206A696820F440700843C2
:100AF00020621EB1E06920F08050E0612878800714
:100B000005D56068A96820F44040084360602878F3
:100B1000C00605D56068E96820F48000084360607D
:100B20000020DBE700100240007000404004424219
:100B30002DE9F0470F46050061D0434E306800F0C4
:100B40000700B84209D2306820F00700384330600F
:100B5000306800F00700B84251D128683B4C81074B
:100B600012D5400703D5606840F4E06060602878E3
:100B7000000703D5606840F4605060606068A96851
:100B800020F0F000084360602878C00728D068682B
:100B9000012810D02168022810D0890700292EDAF8
:100BA000616821F0030101436160FFF7ADFE8046FB
:100BB00041F288390DE021688903EFE78901EDE70B
:100BC000FFF7A2FEA0EB0801494502D90320BDE8CA
:100BD000F0876068696800F00C00B0EB810FEFD11E
:100BE000306800F00700B8420BD9306820F00700E9
:100BF00038433060306800F00700B84201D001206F
:100C0000E5E72878400705D56068E96820F4E060EA
:100C1000084360602878000706D56068296920F4D9
:100C2000605040EAC100606000F018F86168084A4E
:100C3000C1F30311515CC8400649086006480068CA
:100C4000FFF782FE0020C2E70020024000100240B1
:100C5000D0250008B0090020A80900200E4A5168DC
:100C60000E4801F00C03042B11D0082B0FD10C48B7
:100C7000C1F38343C903C05C0AD55168084AC1F374
:100C80004041921E515C054A5043B0FBF1F0704761
:100C900004494843704700000010024000127A00E7
:100CA000C025000800093D002DE9F84F040070D070
:100CB0002078C04DC00749D06868C0F38100012882
:100CC00007D06868C0F38100022809D16868C003B2
:100CD00006D52868800339D560680028E7D035E05C
:100CE0006068B0F5803F0BD010B1B0F5A02F11D0E7
:100CF000286820F480302860286820F4802002E0F2
:100D0000286840F480302860606890B1FFF7FCFDEF
:100D100006460AE0286840F480202860F0E700BF1B
:100D2000FFF7F2FD801B642873D828688003F7D58D
:100D30000CE0FFF7E9FD064605E000BFFFF7E4FD24
:100D4000801B6428F0D828688003F7D420789A4E56
:100D500080074FF001094FF0000839D5686810F09E
:100D60000C0F07D06868C0F38100022809D16868B9
:100D7000C00306D42868800714D52069012808D14B
:100D800010E02069B0B1C6F80090FFF7BDFD07463E
:100D900005E00AE1FFF7B8FDC01B0228C4D82868A7
:100DA0008007F7D52868616920F0F80040EAC100A3
:100DB00028600DE0C6F80080FFF7A6FD074604E0B6
:100DC000FFF7A2FDC01B022823D828688007F7D4AC
:100DD000207800072CD57948A169D9B1C0F80090D6
:100DE000FFF792FD074604E0FFF78EFDC01B0228C7
:100DF0000FD8686A8007F7D571484FF4FA51006838
:100E0000B0FBF1F0009000BF0098411E0091FAD2B3
:100E10000EE080E0C0F80080FFF776FD074604E0B2
:100E2000FFF772FDC01B022875D8686A8007F7D4E7
:100E30002078400760D5E8690027C00008D4E86939
:100E400040F08050E861E869012700F08050009090
:100E50005C480168C90513D40168834641F4807178
:100E60000160FFF751FD824606E000BFFFF74CFD31
:100E7000A0EB0A0064284ED8DBF80000C005F5D5C9
:100E8000E06801280AD008B1052813D0286A20F0AC
:100E900001002862286A20F0040002E0286A40F07D
:100EA00001002862E06841F2883B98B1FFF72CFD11
:100EB00082460BE0286A40F004002862EEE700BF9B
:100EC000FFF722FDA0EB0A0159455AD8286A80078E
:100ED000F6D50CE0FFF718FD824605E0FFF714FD9C
:100EE000A0EB0A0159454CD8286A8007F6D41FB1F7
:100EF000E86920F08050E861E06988B36968C1F36F
:100F00008101022944D00228C6F8608004D0FFF78E
:100F1000FBFC044638E034E0FFF7F6FC074604E04B
:100F2000FFF7F2FCC01B02282BD828688001F7D4F9
:100F3000206AB0F5803F05D16868A16820F40030D0
:100F400008436860D4E908010843696821F4741112
:100F500008436860C6F86090FFF7D6FC044606E0D8
:100F600025E000BFFFF7D0FC001B022809D8286845
:100F70008001F7D51BE000BFFFF7C6FC001B02286D
:100F800002D90320BDE8F88F28688001F4D40EE070
:100F90000128F7D06868226A00F48031914204D1B8
:100FA000616A00F47010884201D00120EAE7002055
:100FB000E8E7000000100240000042428004424284
:100FC000B00900200070004010B5401EB0F1807FD5
:100FD00001D3012010BD4FF0E02460610F216017A4
:100FE00000F02AFE0020A06107202061002010BD33
:100FF0007047704770B590F83C20012A26D0012434
:1010000080F83C40022280F83D2003685A689D68C1
:1010100022F070060A6832435A600D4B02689A4209
:1010200008D0B2F1804F05D00A4B9A4202D00A4B49
:101030009A4204D1496825F080031943916080F8F1
:101040003D40002180F83C10084670BD022070BD74
:10105000002C0140000400400008004010B50400CE
:1010600003D094F83D0010B107E0012010BD00202E
:1010700084F83C00204600F01FF8022084F83D0070
:10108000211D206800F0BCFC012084F8460084F893
:101090003E0084F83F0084F8400084F8410084F862
:1010A000420084F8430084F8440084F8450084F842
:1010B0003D00002010BD000008B5154A0168154824
:1010C00091420ED1816941F4006181618069002201
:1010D00000F40060009001211920FFF781FC192025
:1010E00010E0B1F1804F11D1C16941F00101C1613E
:1010F000C069002200F00100009001211C20FFF7D0
:101100006FFC1C20BDE80840FFF75CBC08BD000078
:10111000002C01400010024090F83D10012901D040
:1011200001207047022180F83D100168CA6842F032
:101130000102CA6000680B49884208D0B0F1804FB4
:1011400005D00949884202D00849884204D1816803
:1011500001F00701062903D0016841F00101016097
:1011600000207047002C01400004004000080040AF
:1011700070B5044690F83C000025012817D00126E0
:1011800084F83C60022084F83D002068826822F0E8
:10119000770222F47F4282600868502838D00DDC44
:1011A00020284FD005DC90B3102811D14AE002204E
:1011B00070BD302846D040280AD13BE060282FD0AF
:1011C00070280DD0B0F5805F03D0B0F5005F12D06D
:1011D000012584F83D60002084F83C00284670BD5D
:1011E000CB68D1E90121206800F04DFC20688168BE
:1011F00041F0770109E0CB68D1E90121206800F0D6
:1012000042FC2068816841F480418160E1E719E097
:10121000CA684968206800F0EBFC5021206806E0AD
:10122000CA684968206800F0F4FC6021206800F07A
:1012300034FCCEE7CA684968206800F0D9FC402138
:101240002068F4E7226801461046F0E7704770B561
:101250000446006801694FF00005C943890715D4A9
:10126000C168C943890711D4E91E016101202077B3
:10127000206880698007204602D0FFF7E7FF04E07E
:1012800000F0BCF8204600F04EF92577206801698F
:10129000C943490717D4C168C943490713D46FF03C
:1012A00004010161022020772068806910F4407FEA
:1012B000204602D0FFF7CAFF04E000F09FF8204666
:1012C00000F031F9257720680169C943090716D470
:1012D000C168C943090712D46FF0080101610420F5
:1012E00020772068C0698007204602D0FFF7AEFF54
:1012F00004E000F083F8204600F015F92577206817
:101300000169C943C90617D4C168C943C90613D4C2
:101310006FF010010161082020772068C06910F487
:10132000407F204602D0FFF791FF04E000F066F80E
:10133000204600F0F8F8257720680169C943C907FD
:1013400008D1C168C943C90704D1891E016120467B
:1013500000F038F920680169C943090609D4C16859
:10136000C943090605D46FF0800101612046FFF7EB
:101370003FFE20680169C943490609D4C168C943D1
:10138000490605D46FF040010161204600F0EEF9F6
:1013900020680169C94389060BD4C168C94389061D
:1013A00007D46FF0200101612046BDE87040FFF7CF
:1013B00020BE70BD00B585B0002100910191029161
:1013C00003910068B0F1804F11D10A48816941F062
:1013D000040181618069694600F0040004900720DF
:1013E00000900220019003900348FFF797F905B0A1
:1013F00000BD00000010024000080140704770B5B9
:10140000044690F83C0000260D4601280FD001202C
:1014100084F83C006AB1042A1DD0082A2FD00C2A77
:101420003FD00126002084F83C00304670BD0220E9
:1014300070BD206800F03AFB2068816941F0080126
:1014400081612068816921F00401816120688169DE
:101450002A69114311E0206800F050FB206881697F
:1014600041F4006181612068816921F480618161BA
:10147000206881692A6941EA02218161D2E72068F6
:1014800000F068FB2068C16941F00801C161206873
:10149000C16921F00401C1612068C1692A69114351
:1014A00011E0206800F082FB2068C16941F400610E
:1014B000C1612068C16921F48061C1612068C1698E
:1014C0002A6941EA0221C161ACE710B5040003D0EA
:1014D00094F83D0010B107E0012010BD002084F811
:1014E0003C00204600F01EF8022084F83D00211D3B
:1014F000206800F085FA012084F8460084F83E0058
:1015000084F83F0084F8400084F8410084F84200E9
:1015100084F8430084F8440084F8450084F83D00D2
:10152000002010BD7047704710B50446022249B133
:1015300004290ED0082913D094F84100012816D0B0
:10154000012010BD94F83E000128F9D184F83E2016
:101550000FE094F83F000128F2D184F83F2008E022
:1015600094F840000128EBD184F8402001E084F891
:1015700041200122206800F079FA0F492068884252
:1015800003D1426C42F4004242642068884208D091
:10159000B0F1804F05D00949884202D008498842FD
:1015A00004D1816801F00701062903D0016841F0E8
:1015B00001010160002010BD002C0140000400402A
:1015C0000008004070B5594C594A5A4B206B616B6A
:1015D00000F0EEFC584A594B00F0EAFC584A594BCF
:1015E00000F0E6FC012200F0A4FF20616161564B8F
:1015F00020690022616900F0D9FD02D20020524921
:1016000001E02069616920616161504A504B2069A5
:10161000616900F091FC02D24C484D4901E020691B
:1016200061692061616141486188383050F821006A
:1016300000F0DCFE474D00222B4600F0EDFD226954
:10164000636900F0B5FC00222B4600F079FB424EA6
:101650000022334600F0ACFC00222B4600F070FB69
:1016600000F02AFCE0803D48618850F8210000F03D
:10167000BDFE00222B4600F0CFFD2269636900F019
:1016800097FC00222B4600F05BFB0022334600F063
:101690008FFC00222B4600F053FB00F00DFC208154
:1016A0002F48618850F8210000F0A0FE00222B4650
:1016B00000F0B2FD2269636900F07AFC00222B463B
:1016C00000F03EFB0022334600F072FC00222B4665
:1016D00000F036FB00F0F0FB6081E1884FF08040C5
:1016E0004163218981636189C163A08800F011FC95
:1016F000226A636A00F024FB206261626088401CF9
:1017000060806088C8280FD300206080154A164B7F
:10171000206A616A00F04CFCA061E1610021216255
:1017200061622078C043207070BD0000000000207E
:1017300081971936CA9A0A40AA4C58E87AB6FB3FF4
:10174000F7CF2E3AB423983F0000F03F9A99999929
:101750009999A93F0000E03F001EAC405C030020C7
:10176000800600207B14AE47E17A743F7047FEE7A5
:101770003EB5002411480094019402940E498460FF
:10178000016004730475012505614FF46021446014
:10179000C161FEF78FFE08B172B6FEE70620CDE903
:1017A0000005694602940548FEF702FE002801D0B4
:1017B00072B6FEE73EBD000000240140B4090020DF
:1017C00070B586B0002418480094019402940394E4
:1017D000816941F010018161816901F0100104917A
:1017E000816941F020018161816901F0200104914A
:1017F000816941F00401816180690C4E00F00400B0
:101800004FF400550490002229463046FFF776F841
:1018100001200095CDE9010402200390694630467D
:10182000FEF77CFF06B070BD0010024000100140C2
:1018300010B586B0002417480094019402940394D4
:10184000049413490594C0E9001441F61F41C0E90E
:101850000241046144618461FFF700FC08B172B683
:10186000FEE74FF48050009069460A48FFF780FC7D
:1018700008B172B6FEE7049404A906480594FFF780
:10188000B9FB002801D072B6FEE706B010BD00001B
:10189000002C0140E409002010B58EB0002407940C
:1018A000089409940A940B941C2168460C94FEF742
:1018B000AFFC2A484FF08041C0E90014202181602C
:1018C00040F60F61C0E903148461FFF7C7FB08B15C
:1018D00072B6FEE74FF48050079007A91F48FFF744
:1018E00047FC08B172B6FEE71C48FFF7EEFD08B1F1
:1018F00072B6FEE70B940BA918480C94FFF77AFB1D
:1019000008B172B6FEE7602000904FF4FA70CDE99E
:1019100001040022694611480494FFF770FD08B1E4
:1019200072B6FEE74FF47A700190042269460B48C4
:10193000FFF765FD08B172B6FEE740F2DC5001909A
:10194000082269460548FFF75AFD08B172B6FEE75E
:101950000248FFF72FFD0EB010BD00002C0A00203A
:10196000FEE7FEE770477047FEF7D4BF30B593B08F
:1019700028216846FEF74CFC14210AA8FEF748FC13
:10198000002501200F9510951195010412958DE801
:10199000230004904FF4E010CDE9081002240794CE
:1019A0006846FFF781F908B172B6FEE70AA90F2071
:1019B00081E831004FF48060CDE90D0502210AA8CD
:1019C000FFF7B6F808B172B6FEE74FF40040119089
:1019D0000F940FA8FFF736F8002801D072B6FEE783
:1019E00013B030BD704700000148FFF730BC000065
:1019F000E40900200148FFF72ABC00002C0A00205F
:101A0000F0B50268164B174C174D4FF080479842BF
:101A100005D0B84203D0A04201D0A84203D122F0A1
:101A200070064A683243984205D0B84203D0A042BB
:101A300001D0A84203D122F44074CA6822434C6901
:101A400022F08002224302608A68C2620A688262CF
:101A5000984201D10969016301214161F0BD000093
:101A6000002C0140000400400008004010B501F0C7
:101A70001F030121046A99408C430462016A9A4061
:101A80001143016210BD10B5846842EA032224F4B8
:101A90007F440A432243826010BD826822F07002B4
:101AA0000A4342F0070181607047000030B5036AC5
:101AB000026A22F0010202624268846924F073051E
:101AC0000C682C4323F002058B682B430A4DA84277
:101AD0000BD123F00805CB6822F440722B434D69EB
:101AE00023F0040315438A692A43426084614968EC
:101AF0004163036230BD0000002C014030B5026A32
:101B0000036A23F010030362436884690D6824F4B8
:101B1000E64444EA05248D6822F0200242EA0512D8
:101B20000B4DA8420ED1CD6822F0800242EA051288
:101B30004D6923F4406343EA85038D6922F0400236
:101B400043EA85034360846149688163026230BD72
:101B5000002C014030B5036A026A22F480720262EE
:101B60004268C46923F4007324F073050C682C43A5
:101B70008D6843EA05230C4DA8420ED1CD6823F4AD
:101B8000006343EA05234D6922F4405242EA0512FC
:101B90008D6923F4806342EA05124260C46149689A
:101BA000C163036230BD0000002C014030B5046AFF
:101BB000026A22F4805202624268C3690D6823F40B
:101BC000E64343EA05238D6824F4005444EA0534CF
:101BD000064DA84204D14D6922F4804242EA8512A2
:101BE0004260C36149680164046230BD002C014059
:101BF00010B5036A046A24F001040462846924F0C5
:101C0000F00444EA021423F00A020A4384610262E7
:101C100010BD10B5036A046A24F0100404628469DC
:101C200023F0A00324F4704444EA023243EA011191
:101C30008261016210BDFEE70907090E002804DB7E
:101C400000F1E02080F80014704700F00F0000F170
:101C5000E02080F8141D7047FEF764FEFFF786FE53
:101C6000FFF7AEFDFFF784FDFFF7E2FDFFF714FE7F
:101C70002948FFF751FA284800214830FFF754FC63
:101C8000254804214830FFF74FFC234808214830FD
:101C9000FFF74AFC00224FF400512048FEF72EFEC9
:101CA0001F4D204E204FDFF88480DFF88490DFF84E
:101CB00084A0DFF884B0214C17483038FEF7B4FC1C
:101CC00015483038FEF7F2FBA08013483038FEF795
:101CD0000BFDA0692A463346E16900F031F83A4627
:101CE000434600F065F9A062E162A06A4A465346A5
:101CF000E16A00F025F820636163206B00225B46F7
:101D0000616B00F019F902D80020014601E0206B58
:101D1000616B20636163CFE7E4090020001001409C
:101D2000FCA9F1D24D525740BC3F7B819BBD4A3F3D
:101D3000AE47E17A14AED73F0000E83F0000002034
:101D400010B591EA030F48BF83F0004300F16C82A5
:101D5000841A71EB030C05D2121943EB0C03001B20
:101D600061EB0C01DFF824E14FEA1154A4EB135CA2
:101D70001EEA430F18BF9EEA445F73D023EA0E03A6
:101D8000DCF1200E21EA045143F4801332D322FA0D
:101D90000CFE10EB0E0023FA0CFE41EB0E01CCF111
:101DA000200E03FA0EFE10EB0E0051F10001B1F50A
:101DB000801FCCF1200E32D201EB045112FA0EF248
:101DC000BDE8104058BF7047401C38BF5FEA420270
:101DD00018BF7047002814BF20F0010041F1000136
:101DE0004FEA410313F5001F38BF7047A1F1C0410E
:101DF00000F0D6B9012A43EB0302ACF1200CDCF170
:101E00001F0E32BF4FF0000E23FA0CF310EB03004D
:101E100041EB0451B4EB115FD0D0A1EB045101F5BB
:101E2000801149085FEA300001EB04510ED350F1F4
:101E3000000038BF12FA0EFE08D1BDE81040C9E715
:101E4000401C38BF5FEA4202CAD1C3E7BDE8104078
:101E50004FEA410313F5001F38BF7047A1F1C0419D
:101E600000F09EB99EEA445F08D011EA5E0FBDE81B
:101E7000104004BF01F0004100207047BDE8104051
:101E800070B500F03FF900BF64FBBE3E0000E0FF0C
:101E900002494FF0000000F01ABB00BF0000F87FBD
:101EA000491058BFC1F140415B1058BFC3F14043D6
:101EB0008B42EFF3008070474FEA1153A3F5806324
:101EC000D3F11E03A8BFD3F1200C08DB4FF0004272
:101ED00042EAC12252EA505232FA03F070470942F4
:101EE0000BD4102BC4BF0020704703F5787CBCF1E5
:101EF000FF3F05D04FF0FF3070474FF000007047B4
:101F000070B500F0FFF800BF4992248000207047B0
:101F1000F0E7B0FA80F310FA03F10AD0C3F11D0321
:101F200003F580634FEA41504FEA035202EBD1219F
:101F300070474FF00000704751EA030C17D41CF5AE
:101F4000801F58BFBCF5801F00F10680994218BF62
:101F5000704708BF9042704707D711F5801F58BFE0
:101F600013F5801F19D499427047894270471CF5B8
:101F7000801F08D5BCF5801FF7D58B4218BF70476E
:101F800008BF824270474FF4001C1CEB410F38BF62
:101F90001CEB430F01D28B42704770B500F0B2F8D2
:101FA000922449004FF000514FF08053FFF778BF63
:101FB000DFF848C170B51CEA111E1EBF1CEA1315DC
:101FC0009EEA0C0F95EA0C0F00F06F8081EA030483
:101FD00023EA4C134EEAD47E21EA4C1141F48011DD
:101FE00043F48013AE44A1FB024CA0FB0365AEF1A9
:101FF0007F7E361955EB0C05A1FB034C4CF1000319
:10200000A0FB021C16EB0C06654153F100030942CC
:1020100018BF46F0010613F4007F0BD14FEA0331DD
:102020004FEA0530340341EA155140EA16506FF08B
:1020300003020AE04FEAC3214FEAC520F40241EA55
:10204000555140EA56506FF0020202EB2E4201EB6E
:10205000025585EACE710AD05FEA440C18BF24F01D
:10206000004450F1000041F1000120EAD47040F238
:10207000FE7C624500D270BDA84214BF4FF0804480
:102080004FF04044002E08BF0024BEF1806FA8BF6F
:10209000A1F1C041BDE8704080F282804FF00000A5
:1020A00001F1C04101F0004170479EEA0C0F0CEABB
:1020B000131518BF95EA0C0F06D04FF0000081EA07
:1020C000030E0EF0004170BD00F01CF88900013EC7
:1020D00000F007B800F009B84FEA430C5FEA5C5C17
:1020E00008D081EA030100F05BB84FEA410C5FEAD7
:1020F0005C5CF6D14FF00000014970470000FF071B
:102100000000F87F0EF1020E2EF0030E5EF8046B55
:10211000364205D4012A43EB030515F5001F12D8FA
:10212000012841EB010C1CF5001F0CD80ED14FEA21
:10213000D17C15F5001F0CEB4C0C0CF1020C08BF08
:102140004CEBD37C04E04FF0080C01E04FEAD37C69
:102150000CEB4C0526FA05F606F00706B6F1040C62
:1021600006D20EEB860CBDE870404CF0010C6047C7
:10217000DFE80CF0090B02024FF000414FF00000C5
:10218000A1F5002170BD19461046012851EB01044C
:1021900018BFD4F5001484BF002001F0004170BDC9
:1021A0000808A0F500114FEA3101704753EA010C0D
:1021B00017D41CF5801F58BFBCF5801F00F10680A6
:1021C0008B4218BF704708BF8242704707D713F58C
:1021D000801F58BF11F5801F19D48B4270479B4256
:1021E00070471CF5801F08D5BCF5801FF7D59942B4
:1021F00018BF704708BF904270474FF4001C1CEB9B
:10220000430F38BF1CEB410F01D2994270470FB406
:102210000CBC03BCFFF7C1BE10B591EA030F48BF69
:1022200083F000433FF594AD841A71EB030C07D2A1
:1022300012198CF0004C43EB0C03001B61EB0C01FA
:10224000DFF8A4E14FEA1154A4EB135C1EEA430F3C
:1022500018BF9EEA445F00F0B08023EA6E0352424A
:1022600021EA0451C3EB6E0338BF5B1EDCF1200E84
:1022700025D322FA0CFE10EB0E0043FA0CFE41EBC4
:102280000E01CCF1200E03FA0EFE10EB0E0051F100
:102290000001CCF1200E29D412FA0EF201EB045108
:1022A000BDE8104058BF7047401C1CBFB2F1004F42
:1022B000704700280CBF491C20F00100704712EB4A
:1022C000020E43EB030218BF4FF0010E4EEA42022A
:1022D000ACF1200CDCF11E0E54D943FA0CFE10EBCD
:1022E0000E0051F1FF31CCF11E0ED5D50EF1010ECD
:1022F00012FA0EFE404141EB010101EB445C5FEA42
:102300005C5C10D910EBDE7001EB045138BFBEF1FC
:10231000004FBDE8104018BF704700280CBF491C93
:1023200020F00100704730D24FEAD42C11F5001193
:1023300024F400641BD0B1FA81F20B3AA41AA41E53
:10234000D2F12003914030FA03F31943904001EB9E
:10235000CC71002C01EB0451BDE81040A8BF7047C0
:1023600001F1C0414FF0000001F000417047B0FAA8
:1023700080F310FA03F100D110BDE41A173C4805B0
:10238000C90AE4E701EB045110BD491001EB045107
:10239000BDE810404FEA300002E04FF00001704706
:1023A0004A0008BF0042F8D0B2F5001F28BF7047AE
:1023B00001F000414FF0000070479EEA445F07D0F3
:1023C00011EA5E0FBDE8104004BF002100207047F5
:1023D000BDE8104070B5FFF795FE00BF40DFF63E48
:1023E00083F00041104670470000E0FF43004FEAD1
:1023F000D30C4FEA3C0C43401FBF40070CF1605127
:1024000013F0FE4F70471CF0006F03D100200CF05A
:10241000004170470CF0004343EA507010B540EAA9
:10242000CC0000F00EF800BF000000924FEA00015F
:10243000FFF7B6BE4FF000414FF00000A1F50021BC
:1024400070470EF1020E2EF0030E5EF8044B24428C
:1024500004D44FEA4102B2F17F4F11D84FEA400352
:10246000B3F17F4F0CD80ED14FEAD07CB2F17F4F41
:102470000CEB4C0C0CF1020C08BF4CEBD17C04E0D3
:102480004FF0080C01E04FEAD17C0CEB4C0324FA2E
:1024900003F404F00704B4F1040C06D20EEB840C30
:1024A000BDE810404CF0010C6047DFE80CF0070875
:1024B00002024FF00040A0F5800010BD0846420027
:1024C00018BFD2F1807288BF00F0004010BD0CF040
:1024D0000F03092B08BF082000F059800A2B0BD0EE
:1024E000082B18BF704708BF1CF0400F0AD04FF0F0
:1024F00000004FF0000170471CF0400F18BF4FF074
:10250000004070471CF0100F08D020F0704300F01E
:102510007F4242EAD3014FEA4370704700F06040C7
:1025200021F07F4242EA000201F07F4040EA7270EF
:1025300070474FF0FF0C4CF4E06C1CEA11531CBFC9
:102540009CEA030C9445C2BFDA4201EB025170478A
:10255000002B0DD0BCF1000F0FD0002A01F000417C
:10256000A4BF41F0E04141F07F614FF000007047AF
:1025700001F000414FF00000704750EA01334FF086
:102580009B0C18BF4CF0806C7FF482AC70471CF43D
:10259000801F11D01CF4E02F03D06FEACC3149002A
:1025A00070474FF04050EFF3008222F0704242EA51
:1025B000000282F3008870474FF00000704701026C
:1025C00002030405060708090A0B0C0D0E0F101074
:1025D00000000000000000000102030406070809D3
:1025E0000026000800000020B409000028010008AF
:1025F000182A0008B4090020240700008C010008F4
:10260000D2000132660133E63F0D6004408F40186E
:1026100023CDCC019304402B10813F30BB073F609A
:10262000760F3F022B173F17D91E3F21B0223F8C58
:102630004A2A3F6ADE313F9E5E393FB7D1403F6F45
:1026400081443FC3D34B3FE10B533FC7295A3F77E8
:102650002D613FC1A8643F917E6B3FE5F26F3F4A19
:102660000C723FEA04743FD8F0743F7DAE763FD0E1
:1026700044783F5EBA793F9A087B3FE3A57B3F24CD
:10268000B97C3F12A57D3FAD697E3F840D7F3F7BC6
:10269000837F3F5BB17F3F57EC7FA43280082110DE
:1026A000211821202128213021383004832F7C4813
:1026B0002150215830083480773F39D67570217801
:1026C0002180100817D96E3F250671A072738421EE
:1026D0002870086C09793F516B7A84400FA8357DCA
:1026E0003FED0D7E3FE0BE7E3F0E4F84400720D27F
:1026F0007F3F72F904210C219C211C2124212C21D3
:102700003421842144214C2154618421F0217421FD
:102710007C21843404F016681814082DB25D3F62E1
:10272000A1565834064F3F273148403410711B3DA5
:102730003FCBA1353F091B2E3F9D80266824100CFE
:10274000021B3FF853133FC8980B3F98DD03B014AA
:10275000223FA089F03E4013E13EFCA9D13ED34D7B
:10276000C23EBE9FBA3EE86AAB3E2D439C3EC44289
:102770008D3E4C10523E44FA6D3EF2B0503E7DD03C
:10278000333EE258173E4694F63DF5B9DA3D780BF4
:10279000A43DDC68803D643B5F3D5BB13F3D7CF226
:1027A000303D2B18153DFE65F73C39B4C83CC0ECF4
:1027B0009E3C96438B3C17B7513C99BB163C5F2916
:1027C000CB3BB37B723B2810063B52499D3A042A0F
:1027D0003940210820093480373A6C09F93A202120
:1027E0002821303008EA95323C211F7448215021BD
:1027F000583008B9FC073D789C2270217821807000
:102800000C4C37893DB29D6F3DF2414F8421281019
:102810000489D2DE4472B2842150116470053B2ECB
:1028200090A0842178200517B7D138046184211C39
:102830002124212C61842144214C2154618421F0E4
:102840002174217C218434048048BF18100D4C373A
:10285000093E787A253E8126423EA4354034101D3B
:10286000C9853E6ABC943EEFC9A33EC5FEB2684C22
:1028700011E7FBC93E1058D93E70CEE83ED044F86F
:102880003E360389A06918A9A0691869A02D000324
:10289000691869A02D280369182D40032D48032DC0
:1028A000500369182D68032D70032D7803A9182D86
:1028B00098032DA003A91821A021A8A91821C82197
:1028C000D0691821E821F021F8691805869421843F
:1028D00069A02120691869A02960618469A0290480
:1028E000691869A029B0691869A029D8691869A070
:1028F000297C691869A02D280369182D40032D48EB
:10290000032D500369182D68032D70032D7803697A
:10291000182D90032D980325886D38052DB80325B3
:10292000A825B06D38052DE0032DE80325D86D38B6
:10293000052D08042D100429006D38050D86B404FA
:1029400021846DC00521206D38056DC005214861C9
:1029500084ADC00561846D7406053E940D32B804E3
:102960002D1C04EDB8042918EDB80429180D26B85B
:10297000042D34042D500569186D34042D78056933
:10298000186D34042DA00569186D34042DC805692F
:10299000186D54072DF00569186D54072D18066938
:1029A000186D54072D40060544940D40B4040D32B3
:1029B000D8076D5407ADD8076D5407ADD80769A087
:1029C0000D22D8072D5407251C6D38056D54072D91
:1029D00098086D38056D54072DC00825742D3805ED
:1029E0006D540725942DD0052D38056D540725BC51
:1029F0002DF8052D00066D54072D18066D38056D50
:102A000054072D40060D46B4041E016D096E107664
:082A10000900040024F4000099
:04000005080000ED02
:00000001FF
